:100000000C9463000C948B000C948B000C948B006C
:100010000C948B000C948B000C948B000C948B0034
:100020000C948B000C948B000C948B000C948B0024
:100030000C948B000C948B000C948B000C948B0014
:100040000C94B7030C948B000C94B5020C948F02A3
:100050000C948B000C948B000C948B000C948B00F4
:100060000C9401040C948B00000000002400270075
:100070002A0000000000250028002B0000000000DE
:1000800023002600290004040404040404040202DA
:100090000202020203030303030301020408102007
:1000A0004080010204081020010204081020000012
:1000B0000008000201000003040700000000000027
:1000C00000006F0B6B0B11241FBECFEFD8E0DEBF1B
:1000D000CDBF23E0A2EEB1E001C01D92AE34B20765
:1000E000E1F711E0A0E0B1E0E6E3F0E202C0059044
:1000F0000D92A23EB107D9F710E0C2E6D0E004C0ED
:100100002197FE010E94E80DC136D107C9F70E9470
:10011000CC0B0C940E100C940000CF92DF92EF9257
:10012000FF920F931F93CF93DF936C017A018B01A2
:10013000C0E0D0E0CE15DF0589F0D8016D918D01CA
:10014000D601ED91FC910190F081E02DC601099559
:10015000892B11F47E0102C02196ECCFC701DF91FB
:10016000CF911F910F91FF90EF90DF90CF90089566
:10017000FC01538D448D252F30E0842F90E0821BAD
:10018000930B541710F0CF96089501970895FC0132
:10019000918D828D981761F0828DDF01A80FB11DBE
:1001A0005D968C91928D9F5F9F73928F90E00895E2
:1001B0008FEF9FEF0895FC01918D828D981731F09C
:1001C000828DE80FF11D858D90E008958FEF9FEFF0
:1001D0000895FC01918D228D892F90E0805C9F4FC6
:1001E000821B91098F739927089583E892E00E94FA
:1001F000E90021E0892B09F420E0822F0895FC0119
:10020000848DDF01A80FB11DA35ABF4F2C91848D9F
:1002100090E001968F739927848FA689B7892C93D4
:10022000A089B1898C9180648C93938D848D98136F
:1002300006C00288F389E02D80818F7D8083089538
:10024000EF92FF920F931F93CF93DF93EC0181E026
:10025000888F9B8D8C8D981305C0E889F9898081E2
:1002600085FD24C0F62E0B8D10E00F5F1F4F0F731E
:100270001127E02E8C8DE8120CC00FB607FCFACFC8
:10028000E889F989808185FFF5CFCE010E94FF00C2
:10029000F1CF8B8DFE01E80FF11DE35AFF4FF08285
:1002A0000B8FEA89FB898081806207C0EE89FF8914
:1002B0006083E889F98980818064808381E090E0AF
:1002C000DF91CF911F910F91FF90EF900895CF9301
:1002D000DF93EC01888D8823C9F0EA89FB8980814E
:1002E00085FD05C0A889B9898C9186FD0FC00FB620
:1002F00007FCF5CF808185FFF2CFA889B9898C9161
:1003000085FFEDCFCE010E94FF00E7CFDF91CF91B7
:10031000089585ED8093BC008091BC0084FDFCCFE6
:1003200010927602089540912402262F30E0240F87
:10033000311D21323105DCF4209176022430C9F4DC
:10034000FC0180E090E0861758F43091240221915E
:10035000DC01AC5FBD4FA30FB11D2C930196F3CF11
:1003600080912402680F6093240280E0089581E068
:10037000089582E00895E0918102F0918202309721
:1003800029F0109278021092770209940895CF9381
:10039000DF93AC01E0917F02F09180023097F1F0A1
:1003A00090917A02809179029817C0F090E0292FFD
:1003B00030E02617370754F4D901AC51BE4FEA019B
:1003C000C20FD31F88818C939F5FF1CF10927A0266
:1003D00060937902CB01DF91CF910994DF91CF91A6
:1003E00008950895E0917A0280917902E81730F437
:1003F000F0E0EC51FE4F808190E008958FEF9FEF89
:10040000089590917A0280917902981750F4E92F1B
:10041000F0E0EC51FE4F208130E09F5F90937A0234
:1004200002C02FEF3FEFC90108958091790290E05B
:1004300020917A02821B91090895CF93DF9300D017
:10044000CDB7DEB7CB01642F49835A830E94930155
:100450004981842F5A81952F0F900F90DF91CF9172
:100460000895CF93DF931F92CDB7DEB7698361E024
:10047000CE0101960E94930181E090E00F90DF9100
:10048000CF910895089580E090E0089560E080E2C3
:1004900093E00C943102FB01DC0111961C921E9238
:1004A00013961C921E92129715961C921E921497E8
:1004B0008617970749F0608171816115710521F0F8
:1004C000448155810C94E80A0895FC011182108240
:1004D00013821282158214826115710551F0FB019D
:1004E00001900020E9F73197AF01461B570B0C94A0
:1004F000E80A08956115710579F0FB01019000206B
:10050000E9F73197AF01461B570BDC01ED91FC91E8
:100510000280F381E02D099480E090E008951F921D
:100520000F920FB60F9211242F933F934F935F9327
:100530006F937F938F939F93AF93BF93EF93FF93AB
:1005400083E892E00E94FF00FF91EF91BF91AF918D
:100550009F918F917F916F915F914F913F912F91DB
:100560000F900FBE0F901F9018951F920F920FB60D
:100570000F9211242F938F939F93EF93FF93E0910A
:100580009302F09194028081E0919902F0919A0295
:1005900082FD12C0908180919C028F5F8F732091A9
:1005A0009D02821751F0E0919C02F0E0ED57FD4F63
:1005B000958F80939C0201C08081FF91EF919F9164
:1005C0008F912F910F900FBE0F901F901895833031
:1005D00081F028F4813099F08230A1F008958730BD
:1005E000A9F08830B9F08430D1F4809180008F7DFB
:1005F00003C0809180008F7780938000089584B538
:100600008F7702C084B58F7D84BD08958091B0003E
:100610008F7703C08091B0008F7D8093B0000895E4
:100620001F93CF93DF93282F30E0F901E255FF4F5E
:100630008491F901E656FF4FD491F901EA57FF4F33
:10064000C491CC23C9F0162F81110E94E702EC2F30
:10065000F0E0EE0FFF1FEE58FF4FA591B4918FB75A
:10066000F894111105C09C91ED2FE095E92302C08B
:10067000EC91ED2BEC938FBFDF91CF911F910895FB
:10068000CF93DF93EC0160E08E810E94100361E064
:100690008E810E94100360E08E810E94100384EC22
:1006A00090E00197F1F7DF91CF910895CF93DF9319
:1006B00090E0FC01E656FF4F2491FC01EA57FF4F02
:1006C0008491882361F190E0880F991FFC01E8591B
:1006D000FF4FC591D491FC01EE58FF4FA591B49105
:1006E000611109C09FB7F89488812095822388837F
:1006F000EC912E230BC0623061F49FB7F8943881DF
:10070000822F809583238883EC912E2B2C939FBF7F
:1007100006C08FB7F894E8812E2B28838FBFDF9116
:10072000CF9108953FB7F894809170029091710233
:10073000A0917202B091730226B5A89B05C02F3F0D
:1007400019F00196A11DB11D3FBFBA2FA92F982FF7
:100750008827820F911DA11DB11DBC01CD0143E071
:10076000660F771F881F991F4A95D1F708951F922A
:100770000F920FB60F9211242F933F938F939F9355
:10078000AF93BF9380916C0290916D02A0916E0225
:10079000B0916F0230916B0226E0230F2D3720F4C9
:1007A0000296A11DB11D05C029E8230F0396A11DC6
:1007B000B11D20936B0280936C0290936D02A09305
:1007C0006E02B0936F028091700290917102A091BD
:1007D0007202B09173020196A11DB11D8093700247
:1007E00090937102A0937202B0937302BF91AF9184
:1007F0009F918F913F912F910F900FBE0F901F905F
:1008000018951F920F920FB60F9211242F933F93BA
:100810004F935F936F937F938F939F93AF93BF9308
:10082000EF93FF938091B900887F803609F49CC0D4
:1008300068F5883209F45BC090F4803109F454C043
:1008400038F4882309F4F6C0883009F44DC0F6C0A6
:10085000883109F44CC0803209F45DC0EFC08034A7
:1008600009F468C048F4803309F455C0883309F0AE
:10087000E5C080934702D8C0803509F44FC0883561
:1008800009F45DC0883409F0D9C0D6C0883909F4AC
:10089000C7C0A8F4883709F467C038F4883609F46B
:1008A00063C0803709F460C0C9C0883809F4B8C093
:1008B000803909F45FC0803809F0C0C05BC0803B5C
:1008C00009F486C038F4803A09F466C0883A09F41D
:1008D0007FC0B4C0803C09F4A7C0883C09F4A4C020
:1008E000883B09F48AC0AAC080916A0210C0909126
:1008F000690280916802981770F5E091690281E0C1
:100900008E0F80936902F0E0E85BFD4F8081809359
:10091000BB0085EC86C0809347028EC0E0916902DF
:1009200081E08E0F809369028091BB00F0E0E85B6C
:10093000FD4F808390916902809168026EC0E091C2
:10094000690281E08E0F809369028091BB00F0E024
:10095000E85BFD4F80838091750281116DC081E05D
:100960008093740284EA61C083E0809376021092DF
:100970004602CFCF80914602803208F051C0E0910C
:10098000460281E08E0F809346028091BB00F0E02A
:10099000EA5DFD4F8083BDCF85EC8093BC00109253
:1009A000760280914602803230F4E0914602F0E017
:1009B000EA5DFD4F10826091460270E0E0917B029B
:1009C000F0917C0286E292E009951092460236C0D0
:1009D00084E0809376021092250210922402E09126
:1009E0007D02F0917E02099580912402811105C05B
:1009F00081E08093240210920402E091250281E0BC
:100A00008E0F80932502F0E0EC5FFD4F8081809394
:100A1000BB009091250280912402981708F479CFA9
:100A200085E88093BC000AC085EC8093BC001092DE
:100A3000760204C0109247020E948901FF91EF9153
:100A4000BF91AF919F918F917F916F915F914F91E6
:100A50003F912F910F900FBE0F901F901895CF923E
:100A6000DF92EF92FF920F931F93CF93DF937C015E
:100A70006C0187E0C80ED11CC0E0D0E0062F10E06A
:100A8000B8010C2E02C0759567950A94E2F7617063
:100A9000F60181916F010E9410032196C430D105A7
:100AA00079F7C701DF91CF911F910F91FF90EF90E0
:100AB000DF90CF900C944003CF92DF92EF92FF92A1
:100AC0000F931F93CF93DF93EC01F62E642F8C814D
:100AD0000E9410038D818F3F19F060E00E94100387
:100AE0008F850F2D10E084FF25C06E0187E0C80EB2
:100AF000D11CE12CF12CB8010E2C02C07595679524
:100B00000A94E2F76170F60181916F010E9410036F
:100B1000FFEFEF1AFF0A88E0E816F10461F7CE0153
:100B2000DF91CF911F910F91FF90EF90DF90CF90C9
:100B30000C944003B80184E0759567958A95E1F7B8
:100B4000CE010E942F056F2DCE01DF91CF911F9115
:100B50000F91FF90EF90DF90CF900C942F0541E024
:100B60000E945C0581E090E0089540E00C945C05F3
:100B7000843008F083E090914503891710F08FEFDF
:100B8000890FE82FF0E0EE5CFC4F6489606882E337
:100B900093E00E94B50566E371E082E393E00C9474
:100BA0007A02CF93DF93EB01843008F083E09091D9
:100BB0004503891710F08FEF890FE82FF0E0EE5C06
:100BC000FC4F8489682F606882E393E00E94B5053A
:100BD0004C815D816881798182E393E0DF91CF91DF
:100BE0000C948D00CF92DF92EF92FF920F931F93A0
:100BF000CF93DF93CDB7DEB72C970FB6F894DEBF57
:100C00000FBECDBF7C01DC0114960D911C91159790
:100C1000083011050CF46AC023E030E040E050E0F9
:100C2000BC01CE0107960E94200B67E471E0CE0163
:100C300007960E94700A8823C9F027E030E045E05B
:100C400050E0B701CE0101960E94200B6DE471E0E7
:100C5000CE0101960E94700ADD24D394811101C057
:100C6000D12CCE0101960E94660B01C0D12CCE0181
:100C700007960E94660BDD20C9F1F70184819581FA
:100C8000059728F00190F081E02D309729F410921B
:100C9000E201E2EEF1E001C03496C0800C2C000CC1
:100CA000DD08F1E3CF1AD10898010831110514F0DD
:100CB00027E130E047E050E0B701CE0101960E9405
:100CC000200B82E0C816D10410F0C12CD12CC60133
:100CD0000E94B805BE016F5F7F4FCE0107960E944C
:100CE0004B02BE01695F7F4FC6013CC098010131D4
:100CF000110514F020E130E040E050E0B701CE01F2
:100D000001960E94200B80E090E00E94B805BE0191
:100D10006F5F7F4FCE0107960E944B02BE01695F55
:100D20007F4F80E090E00E94D105CE0107960E949F
:100D3000660B00311105E4F081E090E00E94B805F7
:100D400098010132110514F020E230E040E150E05A
:100D5000B701CE0107960E94200BBE01695F7F4F4D
:100D600081E090E00E94D105CE0107960E94660BBB
:100D7000CE0101960E94660B2C960FB6F894DEBF4A
:100D80000FBECDBFDF91CF911F910F91FF90EF90DC
:100D9000DF90CF900895AF92BF92CF92DF92EF9203
:100DA000FF920F931F93CF93DF937C016B0160E061
:100DB00084E00E9410038701C8018E199F098C15D9
:100DC0009D05F4F4F801A1908F01C7E0D0E0B12CAB
:100DD00095010C2E02C0359527950A94E2F7B901CA
:100DE0006170772786E00E94100361E083E00E9433
:100DF000100360E083E00E941003219748F7DCCFE6
:100E000061E084E0DF91CF911F910F91FF90EF900F
:100E1000DF90CF90BF90AF900C9410032F923F9231
:100E20004F925F926F927F928F929F92AF92BF92FA
:100E3000CF92DF92EF92FF920F931F93CF93DF93A6
:100E4000CDB7DEB769970FB6F894DEBF0FBECDBF42
:100E50008C012DB63EB6FC01C480D580F6E0CF16DD
:100E6000D1040CF443C124E030E040E050E0BC0188
:100E7000CE0101960E94200B6BE471E0CE01019639
:100E80000E94700AF82ECE0101960E94660BFF2088
:100E900009F4C6C08DB69EB6F80184819581892B70
:100EA00069F0A080B1806BE370E0C5010E94F30F90
:100EB000009721F07C01EA18FB0803C0EE24EA94B5
:100EC000FE2C970144E050E0B801CE0101960E944B
:100ED000200B89819A81009729F00E94400D2B01F7
:100EE0003C0103C0412C512C32015201CE0101962C
:100EF0000E94660B960121503109A7014F5F5F4F99
:100F0000B801CE010A960E94200B8A859B85009726
:100F100029F00E94400D6B017C0103C0C12CD12C33
:100F200076014DB75EB74A195B090FB6F8945EBFFC
:100F30000FBE4DBF6DB77EB76F5F7F4F7F8B6E8BE0
:100F400060E571E083E892E00E947A022E893F8991
:100F500001E010E0C201801B910B97FD4CC043E003
:100F6000880F991F4A95E1F7B701A60104C075954E
:100F70006795579547958A95D2F7DB01CA01F90124
:100F800041939F01198A188A1B8A1A8A1D8A1C8A12
:100F90004AE0BE016F5F7F4F90E0E88F398F0E947B
:100FA000870DBE016F5F7F4FCE0140960E94090BF7
:100FB00065E471E0CE0101960E946502BE01605FAA
:100FC0007F4FCE0101960E94B60AFC0144815581F3
:100FD0006081718183E892E00E948D00CE010196CC
:100FE0000E94660BCE0140960E94660B0F5F1F4F5A
:100FF000398D288DAFCF61E671E083E892E00E94E1
:101000007A02B5018E899F890E94CB06CE010A968D
:101010000E94660B0FB6F8949EBE0FBE8DBE66C0D2
:1010200025E030E040E050E0B801CE0101960E949A
:10103000200B64E671E0CE0101960E94700AF82E42
:10104000CE0101960E94660BFF20E1F06AE671E096
:10105000CE0101960E946502B801CE0101960E9460
:10106000B60A0E94590ACE0101960E94660BF80149
:101070002481358145E050E0B801CE0101960E94FF
:10108000200B2CC023E030E040E050E0B801CE015E
:1010900001960E94200B67E471E0CE0101960E9448
:1010A000700AF82ECE0101960E94660BFF20F1F027
:1010B0006AE671E0CE0101960E946502B801CE0198
:1010C00001960E94B60A0E94590ACE0101960E941A
:1010D000660BB801CE0101960E944B02CE0101962B
:1010E0000E94F205CE0101960E94660B0FB6F8949D
:1010F0003EBE0FBE2DBE69960FB6F894DEBF0FBE82
:10110000CDBFDF91CF911F910F91FF90EF90DF90B6
:10111000CF90BF90AF909F908F907F906F905F9097
:101120004F903F902F900895EF92FF920F931F934F
:10113000CF93DF9300D000D000D0CDB7DEB7EE2440
:10114000E39483E892E00E94E900892B69F183E847
:1011500092E00E94C700F82E89831A820091300322
:10116000109131030F5F1F4FB8018CE293E00E9492
:101170008F0A882399F020912C0330912D038091C0
:10118000300390913103BE016F5F7F4F820F931F39
:101190000E94071010933103009330038AE0F81285
:1011A000D0CFE092E301CDCF6CE273E0CE010196A7
:1011B0000E944B02CE0101960E940E07CE010196BD
:1011C0000E94660B63E671E08CE293E00E94090BDB
:1011D0001092E30183E892E00E94670126960FB621
:1011E000F894DEBF0FBECDBFDF91CF911F910F915D
:1011F000FF90EF9008950E94F50081110C949408DF
:1012000008958F929F92AF92BF92CF92DF92EF920A
:10121000FF920F931F93CF93DF93CDB7DEB76897FD
:101220000FB6F894DEBF0FBECDBF8C01EDB6FEB693
:101230001C8A1B8A1E8A1D8A188E1F8A4AE0BE01DC
:101240006F5F7F4F0E94670DBE016F5F7F4FCE01C2
:1012500043960E94090B66E771E0CE0101960E9459
:101260006502BE016D5E7F4FCE0101960E94B60AF7
:101270000E94590ACE0101960E94660BCE01439648
:101280000E94660B48018FEF881A980AEDB7FEB7E7
:10129000E819F9090FB6F894FEBF0FBEEDBF8DB780
:1012A0009EB701966C01080F191FF80110825C01AE
:1012B0009091790280917A02981759F0A016B106A0
:1012C00041F080E293E00E940102F50181935F0109
:1012D000EFCFF3E08F169104C0F0B601CE01019676
:1012E0000E946502BE016F5F7F4FCE0143960E9450
:1012F0004B02CE0143960E940E07CE0143960E94F8
:10130000660BCE0101960E94660B0FB6F894FEBEE6
:101310000FBEEDBE0FB6F894FEBE0FBEEDBE6896D2
:101320000FB6F894DEBF0FBECDBFDF91CF911F91F6
:101330000F91FF90EF90DF90CF90BF90AF909F9074
:101340008F900895EF92FF920F931F93CF93DF93A7
:10135000EC01623018F08F8588608F876B8B1C8A58
:1013600080E48D8B80E18E8B80E58F8B61E08C81BA
:101370000E9456038D818F3F19F061E00E94560351
:1013800061E08E810E9456037E0187E0E80EF11C29
:1013900000E010E08F8584FD03C084E090E002C08F
:1013A00088E090E0081719074CF461E0F70181919B
:1013B0007F010E9456030F5F1F4FECCF8CE996E828
:1013C0000197F1F760E08C810E94100360E08E814C
:1013D0000E9410038D818F3F19F060E00E9410037E
:1013E0006F8564FD1DC063E0CE010E942F0504E2FD
:1013F00013E2C8010197F1F763E0CE010E942F05C7
:10140000C8010197F1F763E0CE010E942F0588E241
:1014100091E00197F1F762E0CE010E942F0516C01E
:101420006062CE010E94B50584E293E20197F1F774
:101430006F856062CE010E94B50588E291E0019758
:10144000F1F76F856062CE010E94B5056F8560621D
:10145000CE010E94B50584E0888B6CE0CE010E942D
:10146000B50561E0CE010E94B5058CE99FE00197CA
:10147000F1F782E0898B66E0CE01DF91CF911F9179
:101480000F91FF90EF900C94B5050E94E50FCF935C
:10149000DF93EC0188819981009711F00E94830EFF
:1014A000198218821D821C821B821A82DF91CF91C1
:1014B0000895CF93DF93FC01448155816081718150
:1014C00083E892E00E948D00EC0161E671E083E820
:1014D00092E00E947A028C0F9D1FDF91CF910895B8
:1014E000FC0124813581232B31F421E06115710544
:1014F000A1F0FB0108C0FC0180819181611571059B
:1015000031F421E0FC018081882339F005C00E947C
:10151000FE0F21E0892B09F020E0822F08950F9320
:101520001F93CF93DF93EC0188819981009729F075
:101530002A813B812617370788F48B016F5F7F4F25
:101540000E941B0F009761F0998388831B830A8395
:101550002C813D81232B11F4FC01108281E001C01C
:1015600080E0DF91CF911F910F910895EF92FF924C
:101570000F931F93CF93DF93EC01FB01848195813F
:10158000E080F1800C811D81E114F104B1F000973D
:10159000B9F0080F191FB801CE010E948F0A8823E5
:1015A00061F0288139818C819D81B701820F931F61
:1015B0000E9407101D830C8303C0CE010E94470ABE
:1015C000CE01DF91CF911F910F91FF90EF90089581
:1015D000EF92FF920F931F93CF93DF93EC017B0168
:1015E0008A01BA010E948F0A811104C0CE010E94B3
:1015F000470A07C01D830C83B701888199810E9427
:101600000710CE01DF91CF911F910F91FF90EF90C6
:101610000895CF93DF93EC016115710559F0FB013B
:1016200001900020E9F73197AF01461B570B0E944C
:10163000E80A02C00E94470ACE01DF91CF910895C7
:10164000BF92CF92DF92EF92FF920F931F93CF93AF
:10165000DF937C016B018A01E9012417350720F42F
:10166000812F8901C42FD82F63E671E0C7010E9442
:101670006502D60114968D919C911597081719074C
:10168000D0F48C179D0708F4EC01D601ED91FC9184
:101690001197EC0FFD1FB08010824D915C91BA0143
:1016A000600F711FC7010E94090BD601ED91FC91DB
:1016B000EC0FFD1FB082C701DF91CF911F910F91F9
:1016C000FF90EF90DF90CF90BF900895FC01808154
:1016D00091810C94830E8CE293E00C94660BE3E80A
:1016E000F2E01382128288EE93E0A0E0B0E08483FF
:1016F0009583A683B7832AE031E03183208325ECEC
:1017000030E03587248724EC30E03787268720ECCB
:1017100030E0318B208B21EC30E0338B228B22ECBC
:1017200030E0358B248B26EC30E0378B268B118E06
:10173000128E138E148EE0E2F3E013821282848301
:101740009583A683B7838CE191E091838083E2E364
:10175000F3E0138212828EE291E09183808387E02E
:1017600084838FEF85838CE086838BE087838AE098
:10177000808789E0818788E08287138614861586B2
:101780001686178661E0CF010E94A20963E671E028
:101790008CE293E00C946502CF93DF9300D000D0ED
:1017A00000D0CDB7DEB7789484B5826084BD84B5AF
:1017B000816084BD85B5826085BD85B5816085BD4C
:1017C00080916E00816080936E0010928100809104
:1017D000810082608093810080918100816080938C
:1017E0008100809180008160809380008091B100B1
:1017F00084608093B1008091B00081608093B000DC
:1018000080917A00846080937A0080917A0082606F
:1018100080937A0080917A008E7F80937A00809105
:101820007A00806880937A001092C100E091930260
:10183000F091940282E08083E0918F02F091900217
:101840001082E0919102F091920218E010831092C0
:101850009B02E0919702F091980286E08083E091EC
:101860009502F0919602808180618083E0919502DB
:10187000F0919602808188608083E0919502F091DA
:101880009602808180688083E0919502F0919602B3
:1018900080818F7D808362E082E393E00E94A209D1
:1018A00061E084E00E94560361E086E00E945603F6
:1018B00061E083E00E94560361E085E00E945603E8
:1018C00061E082E00E94560360E08DE00E945603D2
:1018D0001093BA008BEB91E090937E0280937D028F
:1018E00087EC91E090937C0280937B0210927A02C5
:1018F000109279021092780210927702109276027A
:1019000081E0809375021092740261E082E10E948E
:10191000100361E083E10E9410038091B9008E7F83
:101920008093B9008091B9008D7F8093B90080E2E7
:101930008093B80085E48093BC0081E099E09093A7
:10194000800280937F0286E492E0909382028093EB
:10195000810260E085E00E94100361E082E00E9465
:10196000100362E971E0CE0101960E946502BE019A
:101970006F5F7F4F80E090E00E94D105CE0101961D
:101980000E94660B6DE971E0CE0101960E9465022E
:10199000BE016F5F7F4F81E090E00E94D105CE01D4
:1019A00001960E94660B6EEA71E083E892E00E9465
:1019B0007A0261E671E083E892E00E947A0219827D
:1019C0001A821B821C8264E070E0CE0101960E94A4
:1019D000CB060BEB10E037EAE32E30E0F32E43E9C1
:1019E000C42E40E0D42EF8018491F701A490F601B2
:1019F000B490B1100DC063ED71E083E892E00E94F5
:101A00007A0261E671E083E892E00E947A02EBCF0D
:101A100081110E94E7028B2D90E0880F991F845856
:101A20009F4FFC01A591B4918C91A82221F30E94B3
:101A300092032B013C0184E6882E912CA12CB12C21
:101A40000E949203DC01CB0184199509A609B7090C
:101A5000883E9340A105B10558F0F1E08F1A910836
:101A6000A108B10828EE420E23E0521E611C711C31
:101A700081149104A104B10419F70E94FB08B3CFAB
:101A80001F93FC0199278827BC01E894119110321B
:101A9000E9F3193010F01E30C8F31B3251F01D323B
:101AA00049F4689406C00E94720D610F711D811D7A
:101AB000911D119110531A30B0F33EF4909580951A
:101AC000709561957F4F8F4F9F4F1F910895BB2752
:101AD0004A3031F4992322F4BDE2909581959F4FCD
:101AE0000C94880D592F482F372F262F660F771FFC
:101AF000881F991F660F771F881F991F620F731F1A
:101B0000841F951F660F771F881F991F0895BB2795
:101B1000FB015527AA27880F991FAA1FA41710F0A9
:101B2000A41B83955051B9F7A05DAA3308F0A95DB5
:101B3000A193009779F7B111B1931192CB010C9455
:101B4000A10DDC01FC01672F71917723E1F732973A
:101B500004C07C916D9370836291AE17BF07C8F388
:101B600008952F923F924F925F926F927F928F9241
:101B70009F92AF92BF92CF92DF92EF92FF920F931C
:101B80001F93CF93DF93CDB7DEB7CA1BDB0B0FB626
:101B9000F894DEBF0FBECDBF09942A8839884888E3
:101BA0005F846E847D848C849B84AA84B984C88479
:101BB000DF80EE80FD800C811B81AA81B981CE0F70
:101BC000D11D0FB6F894DEBF0FBECDBFED01089555
:101BD000EE0FFF1F0590F491E02D0994CF93DF9352
:101BE0008230910510F482E090E0E0914C03F09196
:101BF0004D0320E030E0C0E0D0E0309711F14081AB
:101C0000518148175907C0F04817590761F482817C
:101C10009381209719F09B838A832BC090934D0367
:101C200080934C0326C02115310519F04217530744
:101C300018F49A01BE01DF01EF010280F381E02D6B
:101C4000DCCF2115310509F1281B390B2430310572
:101C500090F412968D919C9113976115710521F066
:101C6000FB019383828304C090934D0380934C03C4
:101C7000FD01329644C0FD01E20FF31F8193919361
:101C8000225031092D933C933AC020914A03309160
:101C90004B03232B41F42091020130910301309337
:101CA0004B0320934A03209100013091010121153B
:101CB000310541F42DB73EB7409104015091050123
:101CC000241B350BE0914A03F0914B03E217F30715
:101CD000A0F42E1B3F0B2817390778F0AC014E5F9C
:101CE0005F4F2417350748F04E0F5F1F50934B038B
:101CF00040934A038193919302C0E0E0F0E0CF016A
:101D0000DF91CF9108950F931F93CF93DF930097A7
:101D100009F48CC0FC0132971382128200914C03AB
:101D200010914D030115110581F420813181820F3D
:101D3000931F20914A0330914B032817390779F5F7
:101D4000F0934B03E0934A0371C0D80140E050E0A8
:101D5000AE17BF0750F412962D913C911397AD0129
:101D60002115310509F1D901F3CF9D01DA01338342
:101D7000228360817181860F971F8217930769F410
:101D8000EC0128813981260F371F2E5F3F4F3183A9
:101D900020838A819B8193838283452B29F4F0934E
:101DA0004D03E0934C0342C01396FC93EE931297BD
:101DB000ED01499159919E01240F351FE217F30758
:101DC00071F480819181840F951F029611969C93E6
:101DD0008E938281938113969C938E931297E0E069
:101DE000F0E0D80112968D919C911397009719F00D
:101DF000F8018C01F6CF8D919C9198012E5F3F4F99
:101E0000820F931F20914A0330914B032817390703
:101E100069F4309729F410924D0310924C0302C0DC
:101E20001382128210934B0300934A03DF91CF91E8
:101E30001F910F910895A0E0B0E0E1E2FFE00C9463
:101E4000B50DEC01009721F4CB010E94EE0DB8C056
:101E5000FC01E60FF71F9C0122503109E217F3073E
:101E600008F4ACC0D9010D911C9111970617170702
:101E7000B0F00530110508F49FC0C801049786171B
:101E8000970708F499C002501109061B170B01931C
:101E900011936D937C93CF010E94830E8DC05B01E3
:101EA000A01AB10A4C01800E911EA0914C03B09172
:101EB0004D0340E050E0E12CF12C109709F44AC0AA
:101EC000A815B905D1F56D907C901197630182E05A
:101ED000C80ED11CCA14DB0480F1A3014A195B09A6
:101EE0006A0182E0C80ED11C1296BC90129713961C
:101EF000AC91B5E0CB16D10440F0B282A3835183FC
:101F00004083D9016D937C930AC00E5F1F4FC301BC
:101F1000800F911FF90191838083EB2DFA2FE1143B
:101F2000F10431F0D7011396FC93EE93129744C05D
:101F3000F0934D03E0934C033FC08D919C9111971A
:101F40004817590708F4AC017D0112960D90BC9119
:101F5000A02DB3CF80914A0390914B03881599052A
:101F6000E1F446175707C8F48091000190910101F0
:101F7000009741F48DB79EB740910401509105013F
:101F8000841B950BE817F907C8F4F0934B03E09313
:101F90004A03F901718360830FC0CB010E94EE0DEB
:101FA0007C01009759F0A801BE010E94EA0FCE0102
:101FB0000E94830EC70104C0CE0102C080E090E001
:101FC000CDB7DEB7EEE00C94D10D81E090E0F8944F
:101FD0000C940E10FB01DC0102C001900D924150E7
:101FE0005040D8F70895FC018191861721F088238D
:101FF000D9F7992708953197CF010895FB01DC01A6
:102000008D91019080190110D9F3990B0895FB016E
:10201000DC0101900D920020E1F7089510E0C2E686
:10202000D0E004C0FE010E94E80D2196C336D1071E
:06203000C9F7F894FFCF90
:1020360000004E0380000000000020018D00B80063
:102046006701E900C700DB000000000031021D0245
:102056004302F10115020102F20100000000AF0582
:102066008D00430242022020202020202020202014
:10207600202020202020006C63640053523A3E004A
:1020860053686966742052656769737465723A208D
:10209600000D0A006C63643A3E006C636420707243
:1020A600696E743A20006E756D626572206F6620E7
:1020B600726563656976696E672062797465733ADD
:1020C600200057656C636F6D65206F6E00547261FA
:1020D600696E204D616E6167656D656E7400547240
:1020E60061696E204D616E6167656D656E74207005
:1020F600726F6772616D20696E697469616C697A65
:10210600656400456D657267656E63792053746F0B
:02211600700057
:107800000C94343C0C94513C0C94513C0C94513CE1
:107810000C94513C0C94513C0C94513C0C94513CB4
:107820000C94513C0C94513C0C94513C0C94513CA4
:107830000C94513C0C94513C0C94513C0C94513C94
:107840000C94513C0C94513C0C94513C0C94513C84
:107850000C94513C0C94513C0C94513C0C94513C74
:107860000C94513C0C94513C11241FBECFEFD8E036
:10787000DEBFCDBF11E0A0E0B1E0EAE8FFE702C063
:1078800005900D92A230B107D9F712E0A2E0B1E065
:1078900001C01D92AD30B107E1F70E942D3D0C945F
:1078A000C33F0C94003C982F95959595959595958B
:1078B000905D8F708A307CF0282F295A8091C0000B
:1078C00085FFFCCF9093C6008091C00085FFFCCF60
:1078D0002093C6000895282F205DF0CF982F809127
:1078E000C00085FFFCCF9093C6000895EF92FF92F1
:1078F0000F931F93EE24FF2487018091C00087FD22
:1079000017C00894E11CF11C011D111D81E2E8164D
:1079100081EAF80687E0080780E0180770F3E09135
:107920000401F091050109958091C00087FFE9CF1E
:107930008091C6001F910F91FF90EF9008950E94D3
:10794000763C982F8091C00085FFFCCF9093C600B5
:1079500091362CF490330CF09053892F089597555D
:10796000892F08951F930E949F3C182F0E949F3CCF
:107970001295107F810F1F9108951F93182F882350
:1079800021F00E94763C1150E1F71F9108951F935A
:10799000182F0E94763C803249F0809103018F5F5E
:1079A000809303018530C1F01F9108958091C0003C
:1079B00085FFFCCF84E18093C6008091C00085FFE5
:1079C000FCCF1093C6008091C00085FFFCCF80E102
:1079D0008093C6001F910895E0910401F091050184
:1079E00009951F9108950E94763C803241F0809164
:1079F00003018F5F80930301853081F008958091AA
:107A0000C00085FFFCCF84E18093C6008091C00058
:107A100085FFFCCF80E18093C6000895E0910401CA
:107A2000F09105010995089548EC50E08823A1F0F4
:107A30002D9A28EE33E0FA013197F1F721503040CA
:107A4000D1F72D9828EE33E0FA013197F1F7215064
:107A50003040D1F7815061F708953F924F925F9285
:107A60006F927F928F929F92AF92BF92CF92DF924E
:107A7000EF92FF920F931F93CF93DF93000082E06A
:107A80008093C00080E18093C4001092C50088E11B
:107A90008093C10086E08093C2005098589A259A3E
:107AA00081E00E94143D24E1F22E9EE1E92E85E959
:107AB000D82E0FE0C02E10E1B12EAA24A394B1E479
:107AC0009B2EA6E58A2EF2E57F2EE0E26E2E79E46B
:107AD000572E63E5462E50E5352E0E94763C8033C6
:107AE000B1F18133B9F1803409F46FC0813409F404
:107AF00076C0823409F485C0853409F488C08035A5
:107B000031F1823521F1813511F1853509F485C0D6
:107B1000863509F48DC0843609F496C0843709F49B
:107B200003C1853709F472C1863709F466C08091B4
:107B300003018F5F80930301853079F6E0910401A2
:107B4000F091050109950E94763C803351F60E9420
:107B5000F33CC3CF0E94763C803249F78091C0004D
:107B600085FFFCCFF092C6008091C00085FFFCCF5E
:107B70009092C6008091C00085FFFCCF8092C60025
:107B80008091C00085FFFCCF7092C6008091C0003C
:107B900085FFFCCF6092C6008091C00085FFFCCFBE
:107BA0005092C6008091C00085FFFCCF4092C60075
:107BB0008091C00085FFFCCF3092C6008091C0004C
:107BC00085FFFCCFB092C60088CF0E94763C8638F5
:107BD00008F4BDCF0E94763C0E94F33C7ECF0E9409
:107BE000763C803809F49CC0813809F40BC1823896
:107BF00009F430C1883909F48FC080E00E94C73C85
:107C00006CCF84E10E94BD3C0E94F33C66CF85E0CE
:107C10000E94BD3C0E94F33C60CF0E94763C809362
:107C200006010E94763C809307010E94F33C55CFE9
:107C30000E94763C803309F411C183E00E94BD3C70
:107C400080E00E94C73C49CF0E94763C80930902A5
:107C50000E94763C8093080280910C028E7F809374
:107C60000C020E94763C853409F409C18091080217
:107C700090910902892B89F000E010E00E94763C87
:107C8000F801E85FFE4F80830F5F1F4F809108026D
:107C9000909109020817190788F30E94763C8032F8
:107CA00009F045CF80910C0280FFF5C0609106017C
:107CB00070910701660F771F7093070160930601AB
:107CC000A0910802B09109021097C9F0E8E0F1E034
:107CD0009B01AD014E0F5F1FF999FECF32BD21BD53
:107CE000819180BDFA9AF99A2F5F3F4FE417F5070B
:107CF00099F76A0F7B1F70930701609306018091CB
:107D0000C00085FFFCCFF092C6008091C00085FFC7
:107D1000FCCFB092C600E1CE83E00E94C73CDDCE2E
:107D200082E00E94C73CD9CE0E94763C8093090233
:107D30000E94763C80930802809106019091070191
:107D4000880F991F90930701809306010E94763C4B
:107D5000853409F49AC080910C028E7F80930C02C6
:107D60000E94763C803209F0B8CE8091C00085FF39
:107D7000FCCFF092C600A0910802B09109021097C2
:107D8000C1F180910C02082F0170182F1695117007
:107D9000E0910601F0910701AF014F5F5F4FBA011B
:107DA00020E030E00023B1F4112339F49491809164
:107DB000C00085FFFCCF9093C6002F5F3F4FCB01E3
:107DC0000196FA012A173B0780F4BC014F5F5F4F11
:107DD000002351F3F999FECFF2BDE1BDF89A90B5B9
:107DE0008091C00085FFFCCFE6CF709307016093C0
:107DF00006018091C00085FDE5CE8091C00085FF21
:107E0000F8CFE0CE81E00E94C73C67CE0E94763C6E
:107E1000803209F08CCE8091C00085FFFCCFF092BB
:107E2000C6008091C00085FFFCCFE092C600809123
:107E3000C00085FFFCCFD092C6008091C00085FFB6
:107E4000FCCFC092C6008091C00085FFFCCFB092ED
:107E5000C60043CE80E10E94C73C3FCE0E94763CE4
:107E60000E94763C182F0E94763C112309F483C0AF
:107E7000113009F484C08FE00E94C73C2ECE80915F
:107E80000C02816080930C02F1CE80910C02816023
:107E900080930C0265CF809107018823880F880B9F
:107EA0008A2180930B028091060190910701880F2F
:107EB000991F90930701809306018091080280FF2B
:107EC00009C08091080290910902019690930902DD
:107ED00080930802F894F999FECF1127E0910601EA
:107EE000F0910701C8E0D1E0809108029091090269
:107EF000103091F40091570001700130D9F303E084
:107F000000935700E8950091570001700130D9F3B4
:107F100001E100935700E8950990199000915700EE
:107F200001700130D9F301E000935700E8951395F3
:107F3000103498F011270091570001700130D9F3E7
:107F400005E000935700E89500915700017001305B
:107F5000D9F301E100935700E8953296029709F0B2
:107F6000C7CF103011F00296E5CF11248091C000E8
:107F700085FFC5CEC8CE8EE10E94C73CAECD85E957
:0A7F80000E94C73CAACDF894FFCF81
:027F8A00800075
:040000030000780081
:00000001FF
