:100000000C945E000C9486000C9486000C94860080
:100010000C9486000C9486000C9486000C94860048
:100020000C9486000C9486000C9486000C94860038
:100030000C9486000C9486000C9486000C94860028
:100040000C9453050C9486000C945E030C943803B6
:100050000C9486000C9486000C9486000C94860008
:100060000C949D050C94860000000008000201001D
:100070000003040700000000000000000000000072
:10008000250028002B0000000000240027002A0083
:10009000040404040404040402020202020203032E
:1000A0000303030301020408102040800102040836
:1000B00010200102040810203C0BD70C11241FBE95
:1000C000CFEFD8E0DEBFCDBF23E0A4EDB1E001C0AB
:1000D0001D92A034B207E1F711E0A0E0B1E0ECE638
:1000E000FFE102C005900D92A43DB107D9F710E0E1
:1000F000CDE5D0E004C02197FE010E94830DCC35F0
:10010000D107C9F70E94990B0C94A90F0C94000019
:1001100090E0FC01EC55FF4F2491FC01E057FF4FAC
:100120008491882399F090E0880F991FFC01EA5789
:10013000FF4FA591B491FC01E458FF4F8591949134
:100140008FB7F894EC91E22BEC938FBF0895CF9288
:10015000DF92EF92FF920F931F93CF93DF936C0187
:100160007A018B01C0E0D0E0CE15DF0589F0D8011F
:100170006D918D01D601ED91FC910190F081E02D02
:10018000C6010995892B11F47E0102C02196ECCF9E
:10019000C701DF91CF911F910F91FF90EF90DF90FA
:1001A000CF900895FC01538D448D252F30E0842F8E
:1001B00090E0821B930B541710F0CF96089501978F
:1001C0000895FC01918D828D981761F0828DDF0179
:1001D000A80FB11D5D968C91928D9F5F9F73928F3A
:1001E00090E008958FEF9FEF0895FC01918D828D2F
:1001F000981731F0828DE80FF11D858D90E00895FC
:100200008FEF9FEF0895FC01918D228D892F90E053
:10021000805C9F4F821B91098F739927089587EE09
:1002200091E00E94030121E0892B09F420E0822F54
:100230000895FC01848DDF01A80FB11DA35ABF4FA3
:100240002C91848D90E001968F739927848FA689D5
:10025000B7892C93A089B1898C9180648C93938DFC
:10026000848D981306C00288F389E02D80818F7DEC
:1002700080830895EF92FF920F931F93CF93DF93A4
:10028000EC0181E0888F9B8D8C8D981305C0E889E7
:10029000F989808185FD24C0F62E0B8D10E00F5F5B
:1002A0001F4F0F731127E02E8C8DE8120CC00FB674
:1002B00007FCFACFE889F989808185FFF5CFCE0167
:1002C0000E941901F1CF8B8DFE01E80FF11DE35A59
:1002D000FF4FF0820B8FEA89FB898081806207C023
:1002E000EE89FF896083E889F98980818064808351
:1002F00081E090E0DF91CF911F910F91FF90EF90FF
:100300000895CF93DF93EC01888D8823C9F0EA89A3
:10031000FB89808185FD05C0A889B9898C9186FDFE
:100320000FC00FB607FCF5CF808185FFF2CFA889FB
:10033000B9898C9185FFEDCFCE010E941901E7CFDD
:10034000DF91CF9108950E940F0181110C94300A22
:1003500008953FB7F8948091D4019091D501A09170
:10036000D601B091D70126B5A89B05C02F3F19F043
:100370000196A11DB11D3FBFBA2FA92F982F882725
:10038000820F911DA11DB11DBC01CD0142E0660F80
:10039000771F881F991F4A95D1F708950E94800FF3
:1003A000CF93DF93EC0188819981009711F00E942F
:1003B0001E0E198218821D821C821B821A82DF91F6
:1003C000CF910895FC0124813581232B31F421E064
:1003D00061157105A1F0FB0108C0FC0180819181CC
:1003E0006115710531F421E0FC018081882339F029
:1003F00005C00E94990F21E0892B09F020E0822F8F
:1004000008950F931F93CF93DF93EC018881998117
:10041000009729F02A813B812617370788F48B0142
:100420006F5F7F4F0E94B60E009761F099838883BB
:100430001B830A832C813D81232B11F4FC01108244
:1004400081E001C080E0DF91CF911F910F9108956D
:10045000EF92FF920F931F93CF93DF93EC01FB0179
:1004600084819581E080F1800C811D81E114F1048B
:10047000B1F00097B9F0080F191FB801CE010E9422
:100480000102882361F0288139818C819D81B70127
:10049000820F931F0E94A20F1D830C8303C0CE0105
:1004A0000E94D001CE01DF91CF911F910F91FF905B
:1004B000EF900895EF92FF920F931F93CF93DF93E6
:1004C000EC017B018A01BA010E940102811104C082
:1004D000CE010E94D00107C01D830C83B701888123
:1004E00099810E94A20FCE01DF91CF911F910F91B0
:1004F000FF90EF900895CF93DF93EC0161157105A4
:1005000059F0FB0101900020E9F73197AF01461B3C
:10051000570B0E945A0202C00E94D001CE01DF9107
:10052000CF910895FC01808191810C941E0EFB01F6
:10053000DC0111961C921E9213961C921E92129729
:1005400015961C921E9214978617970749F06081A2
:1005500071816115710521F0448155810C945A0215
:100560000895FC0111821082138212821582148276
:100570006115710551F0FB0101900020E9F73197F9
:10058000AF01461B570B0C945A020895BF92CF92AD
:10059000DF92EF92FF920F931F93CF93DF937C0133
:1005A0006B018A01E9012417350720F4812F8901A5
:1005B000C42FD82F68E371E0C7010E94B102D601B1
:1005C00014968D919C91159708171907D0F48C17E4
:1005D0009D0708F4EC01D601ED91FC911197EC0F09
:1005E000FD1FB08010824D915C91BA01600F711FA8
:1005F000C7010E947B02D601ED91FC91EC0FFD1F1B
:10060000B082C701DF91CF911F910F91FF90EF90C2
:10061000DF90CF90BF9008956115710579F0FB01CF
:1006200001900020E9F73197AF01461B570BDC0121
:10063000ED91FC910280F381E02D099480E090E03F
:100640000895CF93DF93FC014481558160817181CE
:1006500087EE91E00E94A700EC0166E371E087EE6F
:1006600091E00E940C038C0F9D1FDF91CF910895A4
:100670001F920F920FB60F9211242F933F934F9317
:100680005F936F937F938F939F93AF93BF93EF93FA
:10069000FF9387EE91E00E941901FF91EF91BF91C6
:1006A000AF919F918F917F916F915F914F913F910A
:1006B0002F910F900FBE0F901F9018951F920F92C1
:1006C0000FB60F9211242F938F939F93EF93FF9365
:1006D000E091F701F091F8018081E091FD01F09146
:1006E000FE0182FD12C09081809100028F5F8F73A6
:1006F00020910102821751F0E0910002F0E0E951EF
:10070000FE4F958F8093000201C08081FF91EF9191
:100710009F918F912F910F900FBE0F901F90189562
:1007200090E0FC01E859FF4F3491FC01EC55FF4F7C
:100730002491FC01E057FF4FE491EE2309F43BC004
:10074000332339F1333091F038F43130A9F03230BD
:1007500001F584B58F7D12C0373091F03830A1F0AB
:100760003430B9F4809180008F7D03C08091800087
:100770008F77809380000DC084B58F7784BD09C0CA
:100780008091B0008F7703C08091B0008F7D8093FF
:10079000B000F0E0EE0FFF1FE458FF4FA591B491B9
:1007A0008FB7F894EC91611103C020952E2301C0FE
:1007B0002E2B2C938FBF0895EF92FF920F931F93D0
:1007C000CF93DF93EC01623018F08F8588608F87BC
:1007D0006B8B1C8A80E48D8B80E18E8B80E58F8B08
:1007E0008C810E9488008D818F3F11F00E948800CB
:1007F0008E810E9488007E0187E0E80EF11C00E0F7
:1008000010E08F8584FD03C084E090E002C088E0A2
:1008100090E00817190744F4F70181917F010E94C5
:1008200088000F5F1F4FEDCF8BE39DE00197F1F73D
:1008300060E08C810E94900360E08E810E949003B2
:100840008D818F3F19F060E00E9490036F8564FDF9
:100850001DC063E0CE010E94CB060BE416E4C80184
:100860000197F1F763E0CE010E94CB06C801019722
:10087000F1F763E0CE010E94CB0683E592E0019799
:10088000F1F762E0CE010E94CB0616C06062CE0195
:100890000E9451078BE496E40197F1F76F8560623F
:1008A000CE010E94510783E592E00197F1F76F8531
:1008B0006062CE010E9451076F856062CE010E9486
:1008C000510784E0888B6CE0CE010E94510761E003
:1008D000CE010E9451078BE39FE10197F1F782E07F
:1008E000898B66E0CE01DF91CF911F910F91FF9030
:1008F000EF900C94510785ED8093BC008091BC0073
:1009000084FDFCCF1092DA0108954091F002262F69
:1009100030E0240F311D21323105DCF42091DA0161
:100920002430C9F4FC0180E090E0861758F430913F
:10093000F0022191DC01A053BD4FA30FB11D2C93F8
:100940000196F3CF8091F002680F6093F00280E08F
:10095000089581E0089582E00895E091E501F09125
:10096000E601309729F01092DC011092DB01099426
:100970000895CF93DF93AC01E091E301F091E4019E
:100980003097F1F09091DE018091DD019817C0F071
:1009900090E0292F30E02617370754F4D901A055ED
:1009A000BD4FEA01C20FD31F88818C939F5FF1CFA7
:1009B0001092DE016093DD01CB01DF91CF910994AC
:1009C000DF91CF9108950895E091DE018091DD01DE
:1009D000E81730F4F0E0E055FD4F808190E0089595
:1009E0008FEF9FEF08959091DE018091DD019817C0
:1009F00050F4E92FF0E0E055FD4F208130E09F5F9B
:100A00009093DE0102C02FEF3FEFC901089580915E
:100A1000DD0190E02091DE01821B91090895CF93C2
:100A2000DF9300D0CDB7DEB7CB01642F49835A8363
:100A30000E9485044981842F5A81952F0F900F9031
:100A4000DF91CF910895CF93DF931F92CDB7DEB79B
:100A5000698361E0CE0101960E94850481E090E007
:100A60000F90DF91CF910895089580E090E0089570
:100A700060E084E892E00C942305CF93DF93EC01CF
:100A800060E08E810E94900361E08E810E9490035D
:100A900060E08E810E9490038BE891E00197F1F76E
:100AA000DF91CF9108951F920F920FB60F921124EC
:100AB0002F933F938F939F93AF93BF93809138036E
:100AC00090913903A0913A03B0913B0330913703E1
:100AD00023E0230F2D3720F40196A11DB11D05C081
:100AE00026E8230F0296A11DB11D209337038093A2
:100AF000380390933903A0933A03B0933B0380915A
:100B0000D4019091D501A091D601B091D701019661
:100B1000A11DB11D8093D4019093D501A093D6015E
:100B2000B093D701BF91AF919F918F913F912F913A
:100B30000F900FBE0F901F9018951F920F920FB637
:100B40000F9211242F933F934F935F936F937F9353
:100B50008F939F93AF93BF93EF93FF938091B900CF
:100B6000887F803609F49CC068F5883209F45BC040
:100B700090F4803109F454C038F4882309F4F6C0A5
:100B8000883009F44DC0F6C0883109F44CC0803279
:100B900009F45DC0EFC0803409F468C048F48033C4
:100BA00009F455C0883309F0E5C080931303D8C019
:100BB000803509F44FC0883509F45DC0883409F0E8
:100BC000D9C0D6C0883909F4C7C0A8F4883709F459
:100BD00067C038F4883609F463C0803709F460C010
:100BE000C9C0883809F4B8C0803909F45FC08038BA
:100BF00009F0C0C05BC0803B09F486C038F4803A7D
:100C000009F466C0883A09F47FC0B4C0803C09F496
:100C1000A7C0883C09F4A4C0883B09F48AC0AAC0D4
:100C20008091360310C0909135038091340398175A
:100C300070F5E091350381E08E0F80933503F0E08D
:100C4000EC5EFC4F80818093BB0085EC86C0809376
:100C500013038EC0E091350381E08E0F809335033E
:100C60008091BB00F0E0EC5EFC4F808390913503F7
:100C7000809134036EC0E091350381E08E0F809344
:100C800035038091BB00F0E0EC5EFC4F80838091E7
:100C9000D90181116DC081E08093D80184EA61C0DF
:100CA00083E08093DA0110921203CFCF8091120378
:100CB000803208F051C0E091120381E08E0F8093E2
:100CC00012038091BB00F0E0EE50FD4F8083BDCF5A
:100CD00085EC8093BC001092DA018091120380327F
:100CE00030F4E0911203F0E0EE50FD4F108260917D
:100CF000120370E0E091DF01F091E00182EF92E0F9
:100D000009951092120336C084E08093DA011092A4
:100D1000F1021092F002E091E101F091E2010995F7
:100D20008091F002811105C081E08093F002109261
:100D3000D002E091F10281E08E0F8093F102F0E0A9
:100D4000E053FD4F80818093BB009091F102809130
:100D5000F002981708F479CF85E88093BC000AC0A8
:100D600085EC8093BC001092DA0104C0109213034A
:100D70000E947B04FF91EF91BF91AF919F918F9162
:100D80007F916F915F914F913F912F910F900FBE87
:100D90000F901F901895CF92DF92EF92FF920F93D2
:100DA0001F93CF93DF937C016C0187E0C80ED11CA9
:100DB000C0E0D0E0062F10E0B8010C2E02C07595FF
:100DC00067950A94E2F76170F60181916F010E94C4
:100DD00090032196C430D10579F7C701DF91CF91F7
:100DE0001F910F91FF90EF90DF90CF900C943D05F5
:100DF000CF92DF92EF92FF920F931F93CF93DF93E7
:100E0000EC01F62E642F8C810E9490038D818F3F20
:100E100019F060E00E9490038F850F2D10E084FF91
:100E200025C06E0187E0C80ED11CE12CF12CB80161
:100E30000E2C02C0759567950A94E2F76170F60171
:100E400081916F010E949003FFEFEF1AFF0A88E083
:100E5000E816F10461F7CE01DF91CF911F910F9158
:100E6000FF90EF90DF90CF900C943D05B80184E0A7
:100E7000759567958A95E1F7CE010E94CB066F2D97
:100E8000CE01DF91CF911F910F91FF90EF90DF90F6
:100E9000CF900C94CB0641E00E94F80681E090E0F0
:100EA000089540E00C94F806843008F083E09091B7
:100EB000A902891710F08FEF890FE82FF0E0EA56AA
:100EC000FD4F6489606886E992E00E9451076AE7F5
:100ED00071E086E992E00C940C03CF93DF93EB0171
:100EE000843008F083E09091A902891710F08FEF09
:100EF000890FE82FF0E0EA56FD4F8489682F60687B
:100F000086E992E00E9451074C815D816881798178
:100F100086E992E0DF91CF910C94A700CF92DF9207
:100F2000EF92FF920F931F93CF93DF93CDB7DEB76E
:100F30002C970FB6F894DEBF0FBECDBF7C01DC014D
:100F400014960D911C911597083011050CF46AC088
:100F500023E030E040E050E0BC01CE0107960E9463
:100F6000C6026BE871E0CE0107960E94E201882379
:100F7000C9F027E030E045E050E0B701CE0101962E
:100F80000E94C60261E971E0CE0101960E94E20171
:100F9000DD24D394811101C0D12CCE0101960E9491
:100FA000920201C0D12CCE0107960E949202DD2050
:100FB000C9F1F70184819581059728F00190F081AE
:100FC000E02D309729F41092AE02EEEAF2E001C073
:100FD0003496C0800C2C000CDD08F1E3CF1AD10848
:100FE00098010831110514F027E130E047E050E0A6
:100FF000B701CE0101960E94C60282E0C816D10454
:1010000010F0C12CD12CC6010E945407BE016F5FA5
:101010007F4FCE0107960E949702BE01695F7F4F06
:10102000C6013CC098010131110514F020E130E007
:1010300040E050E0B701CE0101960E94C60280E078
:1010400090E00E945407BE016F5F7F4FCE0107966C
:101050000E949702BE01695F7F4F80E090E00E948E
:101060006D07CE0107960E94920200311105E4F04F
:1010700081E090E00E94540798010132110514F0BC
:1010800020E230E040E150E0B701CE0107960E9437
:10109000C602BE01695F7F4F81E090E00E946D074C
:1010A000CE0107960E949202CE0101960E94920202
:1010B0002C960FB6F894DEBF0FBECDBFDF91CF9157
:1010C0001F910F91FF90EF90DF90CF900895AF9216
:1010D000BF92CF92DF92EF92FF920F931F93CF9325
:1010E000DF937C016B0160E084E00E949003870144
:1010F000C8018E199F098C159D05F4F4F801A19083
:101100008F01C7E0D0E0B12C95010C2E02C03595BF
:1011100027950A94E2F7B9016170772786E00E946B
:10112000900361E083E00E94900360E083E00E940E
:101130009003219748F7DCCF61E084E0DF91CF9105
:101140001F910F91FF90EF90DF90CF90BF90AF90E5
:101150000C9490032F923F924F925F926F927F92E6
:101160008F929F92AF92BF92CF92DF92EF92FF92B7
:101170000F931F93CF93DF93CDB7DEB769970FB669
:10118000F894DEBF0FBECDBF8C012DB63EB6FC017C
:10119000C480D580F6E0CF16D1040CF443C124E01E
:1011A00030E040E050E0BC01CE0101960E94C60252
:1011B0006FE871E0CE0101960E94E201F82ECE01A7
:1011C00001960E949202FF2009F4C6C08DB69EB619
:1011D000F80184819581892B69F0A080B1806BE34F
:1011E00070E0C5010E948E0F009721F07C01EA1883
:1011F000FB0803C0EE24EA94FE2C970144E050E083
:10120000B801CE0101960E94C60289819A81009799
:1012100029F00E94DB0C2B013C0103C0412C512C16
:1012200032015201CE0101960E9492029601215094
:101230003109A7014F5F5F4FB801CE010A960E94A6
:10124000C6028A859B85009729F00E94DB0C6B0102
:101250007C0103C0C12CD12C76014DB75EB74A1971
:101260005B090FB6F8945EBF0FBE4DBF6DB77EB77A
:101270006F5F7F4F7F8B6E8B64E971E087EE91E04B
:101280000E940C032E893F8901E010E0C201801BFF
:10129000910B97FD4CC043E0880F991F4A95E1F7E9
:1012A000B701A60104C075956795579547958A952E
:1012B000D2F7DB01CA01F90141939F01198A188A0B
:1012C0001B8A1A8A1D8A1C8A4AE0BE016F5F7F4F03
:1012D00090E0E88F398F0E94220DBE016F5F7F4F33
:1012E000CE0140960E947B0269E871E0CE01019632
:1012F0000E94B102BE01605F7F4FCE0101960E9445
:101300002802FC01448155816081718187EE91E062
:101310000E94A700CE0101960E949202CE01409643
:101320000E9492020F5F1F4F398D288DAFCF66E369
:1013300071E087EE91E00E940C03B5018E899F89D0
:101340000E946708CE010A960E9492020FB6F89496
:101350009EBE0FBE8DBE66C025E030E040E050E08E
:10136000B801CE0101960E94C60265EA71E0CE0185
:1013700001960E94E201F82ECE0101960E9492028F
:10138000FF20E1F06BEA71E0CE0101960E94B1020C
:10139000B801CE0101960E9428020E942103CE01CD
:1013A00001960E949202F8012481358145E050E0C7
:1013B000B801CE0101960E94C6022CC023E030E0A5
:1013C00040E050E0B801CE0101960E94C6026BE8F1
:1013D00071E0CE0101960E94E201F82ECE01019645
:1013E0000E949202FF20F1F06BEA71E0CE010196BB
:1013F0000E94B102B801CE0101960E9428020E940B
:101400002103CE0101960E949202B801CE010196FD
:101410000E949702CE0101960E948E07CE0101968E
:101420000E9492020FB6F8943EBE0FBE2DBE699682
:101430000FB6F894DEBF0FBECDBFDF91CF911F91E5
:101440000F91FF90EF90DF90CF90BF90AF909F9063
:101450008F907F906F905F904F903F902F90089566
:10146000EF92FF920F931F93CF93DF9300D000D0A2
:1014700000D0CDB7DEB7EE24E39487EE91E00E9472
:101480000301892B69F187EE91E00E94E100F82EBB
:1014900089831A8200919402109195020F5F1F4F69
:1014A000B80180E992E00E940102882399F020911E
:1014B0009002309191028091940290919502BE0128
:1014C0006F5F7F4F820F931F0E94A20F10939502B0
:1014D000009394028AE0F812D0CFE092AF02CDCF11
:1014E0008091AF02882371F060E972E0CE0101962D
:1014F0000E949702CE0101960E94AA08CE01019691
:101500000E94920268E371E080E992E00E947B020F
:101510001092AF0287EE91E00E94810126960FB6ED
:10152000F894DEBF0FBECDBFDF91CF911F910F9119
:10153000FF90EF9008958F929F92AF92BF92CF92BB
:10154000DF92EF92FF920F931F93CF93DF93CDB76C
:10155000DEB768970FB6F894DEBF0FBECDBF8C0123
:10156000EDB6FEB61C8A1B8A1E8A1D8A188E1F8A3B
:101570004AE0BE016F5F7F4F0E94020DBE016F5FA8
:101580007F4FCE0143960E947B0267EB71E0CE0154
:1015900001960E94B102BE016D5E7F4FCE010196A1
:1015A0000E9428020E942103CE0101960E9492020D
:1015B000CE0143960E94920248018FEF881A980A42
:1015C000EDB7FEB7E819F9090FB6F894FEBF0FBEE4
:1015D000EDBF8DB79EB701966C01080F191FF8017A
:1015E00010825C019091DD018091DE01981759F025
:1015F000A016B10641F084E892E00E94F304F501E0
:1016000081935F01EFCFF3E08F169104C0F0B60134
:10161000CE0101960E94B102BE016F5F7F4FCE01E5
:1016200043960E949702CE0143960E94AA08CE01DB
:1016300043960E949202CE0101960E9492020FB63A
:10164000F894FEBE0FBEEDBE0FB6F894FEBE0FBE00
:10165000EDBE68960FB6F894DEBF0FBECDBFDF912A
:10166000CF911F910F91FF90EF90DF90CF90BF909F
:10167000AF909F908F900895E7EEF1E01382128271
:1016800088EE93E0A0E0B0E084839583A683B783DF
:101690002AE031E03183208325EC30E03587248750
:1016A00024EC30E03787268720EC30E0318B208B2C
:1016B00021EC30E0338B228B22EC30E0358B248B15
:1016C00026EC30E0378B268B118E128E138E148E03
:1016D000E4E8F2E01382128284839583A683B783C1
:1016E0008CE191E091838083E6E9F2E0138212823B
:1016F0008EE291E09183808387E084838FEF8583FE
:101700008CE086838BE087838AE0808789E081870D
:1017100088E082871386148615861686178661E010
:10172000CF010E94DC0368E371E080E992E00C9451
:10173000B102CF93DF9300D000D000D0CDB7DEB799
:10174000789484B5826084BD84B5816084BD85B59C
:10175000826085BD85B5816085BD80916E008160A8
:1017600080936E001092810080918100826080934E
:101770008100809181008160809381008091800050
:101780008160809380008091B10084608093B1007B
:101790008091B00081608093B00080917A00846075
:1017A00080937A0080917A00826080937A008091A1
:1017B0007A00816080937A0080917A0080688093BB
:1017C0007A001092C100E091F701F091F80182E0F7
:1017D0008083E091F301F091F4011082E091F50132
:1017E000F091F60180E180831092FF01E091FB010E
:1017F000F091FC0186E08083E091F901F091FA011B
:10180000808180618083E091F901F091FA0180810B
:1018100088608083E091F901F091FA01808180680D
:101820008083E091F901F091FA0180818F7D8083BE
:1018300062E086E992E00E94DC0384E00E94880076
:1018400086E00E94880083E00E94880085E00E9474
:10185000880082E00E94880088E08093BA008DEAC8
:1018600094E09093E2018093E10189EB94E09093FE
:10187000E0018093DF011092DE011092DD011092F1
:10188000DC011092DB011092DA0181E08093D90132
:101890001092D80161E082E10E94900361E083E14F
:1018A0000E9490038091B9008E7F8093B90080914F
:1018B000B9008D7F8093B90088E48093B80085E4F7
:1018C0008093BC008BE99AE09093E4018093E3015C
:1018D00088E395E09093E6018093E50160E085E080
:1018E0000E94900361E082E00E94900369E371E04E
:1018F000CE0101960E94B102BE016F5F7F4F80E072
:1019000090E00E946D07CE0101960E94920264E46D
:1019100071E0CE0101960E94B102BE016F5F7F4F60
:1019200081E090E00E946D07CE0101960E94920234
:1019300065E571E087EE91E00E940C0366E371E0DB
:1019400087EE91E00E940C0319821A821B821C828E
:1019500064E070E0CE0101960E9467080E94A90130
:101960004B015C0184E6C82ED12CE12CF12C0E94A5
:10197000A901DC01CB0188199909AA09BB09883E94
:101980009340A105B10558F021E0C21AD108E10841
:10199000F10888EE880E83E0981EA11CB11CC114CA
:1019A000D104E104F10419F70E94A301D7CF80E923
:1019B00092E00C9492021F93FC0199278827BC01A6
:1019C000E89411911032E9F3193010F01E30C8F389
:1019D0001B3251F01D3249F4689406C00E940D0D6F
:1019E000610F711D811D911D119110531A30B0F3BB
:1019F0003EF490958095709561957F4F8F4F9F4FE6
:101A00001F910895BB274A3031F4992322F4BDE297
:101A1000909581959F4F0C94230D592F482F372F68
:101A2000262F660F771F881F991F660F771F881F45
:101A3000991F620F731F841F951F660F771F881FE2
:101A4000991F0895BB27FB015527AA27880F991FC7
:101A5000AA1FA41710F0A41B83955051B9F7A05DDD
:101A6000AA3308F0A95DA193009779F7B111B1935A
:101A70001192CB010C943C0DDC01FC01672F71919C
:101A80007723E1F7329704C07C916D937083629164
:101A9000AE17BF07C8F308952F923F924F925F92FF
:101AA0006F927F928F929F92AF92BF92CF92DF926E
:101AB000EF92FF920F931F93CF93DF93CDB7DEB7D3
:101AC000CA1BDB0B0FB6F894DEBF0FBECDBF099467
:101AD0002A88398848885F846E847D848C849B84BE
:101AE000AA84B984C884DF80EE80FD800C811B81CC
:101AF000AA81B981CE0FD11D0FB6F894DEBF0FBEFB
:101B0000CDBFED010895EE0FFF1F0590F491E02D7C
:101B10000994CF93DF938230910510F482E090E036
:101B2000E0913E03F0913F0320E030E0C0E0D0E0E0
:101B3000309711F14081518148175907C0F048177B
:101B4000590761F482819381209719F09B838A83DE
:101B50002BC090933F0380933E0326C0211531058F
:101B600019F04217530718F49A01BE01DF01EF0183
:101B70000280F381E02DDCCF2115310509F1281B0E
:101B8000390B2430310590F412968D919C91139766
:101B90006115710521F0FB019383828304C090934A
:101BA0003F0380933E03FD01329644C0FD01E20FE6
:101BB000F31F81939193225031092D933C933AC0A6
:101BC00020913C0330913D03232B41F420910201ED
:101BD0003091030130933D0320933C032091000199
:101BE000309101012115310541F42DB73EB74091E7
:101BF000040150910501241B350BE0913C03F09149
:101C00003D03E217F307A0F42E1B3F0B28173907FB
:101C100078F0AC014E5F5F4F2417350748F04E0F48
:101C20005F1F50933D0340933C038193919302C007
:101C3000E0E0F0E0CF01DF91CF9108950F931F9383
:101C4000CF93DF93009709F48CC0FC013297138285
:101C5000128200913E0310913F030115110581F49A
:101C600020813181820F931F20913C0330913D03ED
:101C70002817390779F5F0933D03E0933C0371C0D1
:101C8000D80140E050E0AE17BF0750F412962D91F6
:101C90003C911397AD012115310509F1D901F3CF1D
:101CA0009D01DA013383228360817181860F971F42
:101CB0008217930769F4EC0128813981260F371FB9
:101CC0002E5F3F4F318320838A819B819383828360
:101CD000452B29F4F0933F03E0933E0342C0139653
:101CE000FC93EE931297ED01499159919E01240FB7
:101CF000351FE217F30771F480819181840F951FDE
:101D0000029611969C938E938281938113969C9355
:101D10008E931297E0E0F0E0D80112968D919C919D
:101D20001397009719F0F8018C01F6CF8D919C91D3
:101D300098012E5F3F4F820F931F20913C033091FB
:101D40003D032817390769F4309729F410923F03AF
:101D500010923E0302C01382128210933D0300933F
:101D60003C03DF91CF911F910F910895A0E0B0E067
:101D7000ECEBFEE00C94500DEC01009721F4CB014C
:101D80000E94890DB8C0FC01E60FF71F9C0122508C
:101D90003109E217F30708F4ACC0D9010D911C9189
:101DA000119706171707B0F00530110508F49FC00A
:101DB000C80104978617970708F499C002501109C3
:101DC000061B170B019311936D937C93CF010E9417
:101DD0001E0E8DC05B01A01AB10A4C01800E911E2F
:101DE000A0913E03B0913F0340E050E0E12CF12C84
:101DF000109709F44AC0A815B905D1F56D907C90EB
:101E00001197630182E0C80ED11CCA14DB0480F173
:101E1000A3014A195B096A0182E0C80ED11C12961F
:101E2000BC9012971396AC91B5E0CB16D10440F05C
:101E3000B282A38351834083D9016D937C930AC0FE
:101E40000E5F1F4FC301800F911FF90191838083A3
:101E5000EB2DFA2FE114F10431F0D7011396FC9326
:101E6000EE93129744C0F0933F03E0933E033FC0CC
:101E70008D919C9111974817590708F4AC017D0189
:101E800012960D90BC91A02DB3CF80913C03909100
:101E90003D0388159905E1F446175707C8F480916A
:101EA000000190910101009741F48DB79EB74091D8
:101EB000040150910501841B950BE817F907C8F43C
:101EC000F0933D03E0933C03F901718360830FC0FD
:101ED000CB010E94890D7C01009759F0A801BE0139
:101EE0000E94850FCE010E941E0EC70104C0CE01C4
:101EF00002C080E090E0CDB7DEB7EEE00C946C0D50
:101F000081E090E0F8940C94A90FFB01DC0102C081
:101F100001900D9241505040D8F70895FC018191F5
:101F2000861721F08823D9F7992708953197CF0193
:101F30000895FB01DC018D91019080190110D9F306
:101F4000990B0895FB01DC0101900D920020E1F74F
:101F5000089510E0CDE5D0E004C0FE010E94830D9D
:0C1F60002196CE35D107C9F7F894FFCFC9
:101F6C00000040038000000000003A01A700D200EE
:101F7C0081010301E100F5000000000023050F05BD
:101F8C003505E3040705F304E404000000004B07E7
:101F9C00A700350534050D0A0057656C636F6D6538
:101FAC00206F6E00547261696E204D616E616765C1
:101FBC006D656E7400547261696E204D616E61675F
:101FCC00656D656E742070726F6772616D20696EDD
:101FDC00697469616C697A65640020202020202076
:101FEC0020202020202020202020006C636400531F
:101FFC00523A3E005368696674205265676973747F
:10200C0065723A20006C63643A3E006C6364207025
:10201C0072696E743A20006E756D626572206F661F
:10202C0020726563656976696E6720627974657381
:04203C003A20000046
:00000001FF
